:020000040800F2
:1000000000040020710200084104000841040008B7
:1000100041040008410400084104000841040008AC
:10002000410400084104000841040008610400087C
:10003000410400084104000841040008310500089B
:10004000410400084104000841040008410400087C
:10005000410400084104000841040008410400086C
:10006000410400084104000841040008410400085C
:10007000410400084104000841040008410400084C
:10008000410400084104000841040008410400083C
:10009000410400084104000841040008410400082C
:1000A00041040008F113000841040008211400086D
:1000B0004104000891140008B1140008410400082C
:1000C00041040008410400084104000841040008FC
:1000D0004104000801170008410400084104000819
:1000E00041040008410400084104000841040008DC
:1000F00041040008410400084104000841040008CC
:1001000041040008410400084104000841040008BB
:1001100041040008410400084104000841040008AB
:10012000410400084104000841040008410400089B
:10013000410400084104000841040008410400088B
:10014000410400084104000841040008410400087B
:10015000410400084104000841040008410400086B
:10016000410400084104000841040008410400085B
:10017000410400084104000841040008410400084B
:080180004104000841040008DD
:1001900030B54FF4006583B0C4F6000500F070FE82
:1001A00000F036FA284601224FF4005101F080F8A1
:1001B0004FF400530024AB6140F6802041F69133A8
:1001C00040224FF4A871C0F600030094C2F2000070
:1001D00000F036FC41F6C12340F6886040224FF41F
:1001E000A871C0F600030094C2F2000000F028FCE1
:1001F00041F6F11340F6D83040224FF4A871C0F612
:1002000000030094C2F2000000F01AFC41F6111342
:1002100040F6D87040224FF4A871C0F60003009455
:10022000C2F2000000F00CFC40F6305041F64103F1
:1002300000944FF4A8714022C0F60003C2F20000FF
:1002400000F0FEFB204603B030BD00BFAFF30080DE
:10025000704700BFAFF30080AFF30080AFF30080C2
:10026000FEE700BFAFF30080AFF30080AFF3008084
:1002700072B6644C84F30988022383F31488BFF3B5
:100280006F8F61486149884218D2CA1C051D531BF3
:1002900023F00302034610184FF0553183421960D2
:1002A000C2F380020AD01AB185422B46296005D0DC
:1002B0001D1D5960083383426960F9D15448A0423A
:1002C00018D25449041D0A1B22F0030503462818BE
:1002D0004FF0553183421960C5F380020AD01AB13C
:1002E00084422346216005D01D1D59600833834296
:1002F0006960F9D101F094FA4749484881421BD21C
:10030000C61C0C1D321B464822F00302161D056850
:100310000423B3420D60C2F380020DD022B14568C0
:100320000823B342256007D01A1D1D5884585D501C
:100330000833B3428C50F7D13A483B49884217D230
:10034000CB1C041D1A1B22F00305034628180021AC
:1003500083421960C5F380020AD01AB18442234651
:10036000216005D01D1D5960083383426960F9D1B1
:10037000FFF76EFF2D4D2E498D421DD2CC1C2E1D38
:10038000A71BB808471C01242A6800EA0408904704
:10039000BC4211D0B8F1000F05D002243368984751
:1003A000BC42354608D0696888470234A8682E1DCB
:1003B00080470835BC42F6D1FFF7EAFE1D4D1E4AC4
:1003C00095421DD2D41C2E1DA71BBB085F1C012407
:1003D000296803EA04088847BC4211D0B8F1000F2D
:1003E00005D0022430688047BC42354608D06A6890
:1003F00090470234AB682E1D98470835BC42F6D1B1
:10040000FFF72EFF0008002000000020000400205D
:1004100000040020030800200008002048080020F5
:10042000781D0008480800203011002088010008CD
:10043000880100088801000888010008AFF30080E7
:10044000FEE700BFAFF30080AFF30080AFF30080A2
:1004500000F086FA00DF00BFAFF30080AFF300804A
:10046000EFF30983203383F30988002383F3118892
:10047000704700BFAFF30080AFF30080AFF30080A0
:1004800008B54FF46D43CEF200034FF44072C0F252
:10049000FA520021996007201021DA6000F090F8EC
:1004A0000A20202100F08CF80B208021BDE80840B4
:1004B00000F086B8AFF30080AFF30080AFF30080A8
:1004C000202383F311884FF46D43CEF20003586864
:1004D00010F4006319D0EFF30983A3F1200282F333
:1004E000098810494FF080708A6943F8040CD07F66
:1004F00009689268896858B1914294BF002201222C
:1005000062B1094A43F8082C704783F31188704799
:10051000914234BF00220122002AF2D1034843F85D
:10052000080C70478009002051040008540400089A
:1005300008B5202383F3118800F0A2F8002383F389
:100540001188BDE80840FFF7BBBF00BFAFF30080D4
:100550002DE9F04FC1F80CD0D0F80CD0BDE8F08FE9
:10056000002383F311882846A04700F0B1FA7047B2
:10057000F0B44FF461438408CEF20003C03400F0BD
:10058000030553F82470ED00FF26420906FA05F62C
:1005900027EA060601FA05F500F01F0002F16007E0
:1005A000012101FA00F02E4343F8246043F82700AC
:1005B00043F82200F0BC7047AFF30080AFF3008037
:1005C00082084FF46D43CEF20003063200F00300C0
:1005D00030B4C00053F82250FF2404FA00F425EA96
:1005E000040401FA00F10C4343F8224030BC704788
:1005F000024B034A98698261FEE700BF8009002030
:10060000501C0008AFF30080AFF30080AFF3008010
:1006100000B583B0FFF734FF00F0DAF800F060F8BF
:1006200000F0E6FB00F01CFC40F648004021C2F25E
:10063000000000F0A5F940F68011C2F2000101228D
:1006400088610277002383F3118862B641F6604027
:100650008969C0F600008861009340F6900040F27E
:10066000F153E021C0F60003C2F2000000F0E8F907
:1006700003B000BDAFF30080AFF30080AFF30080A4
:1006800038B5134B9869C27F0AB1511EC177036A0E
:10069000104C5A1C0262E0682268411CA242E160D0
:1006A00014D09568013D956085B91368D1685C6088
:1006B0002360D560002383F31188106988472023C5
:1006C00083F31188226890680028EED038BD00BFFF
:1006D0008009002070090020AFF30080AFF3008094
:1006E00040F67013C2F200034FF0FF3200205B604F
:1006F0001B609A60D8607047AFF30080AFF3008052
:1007000070B40C4E03613468C260A568A94204D974
:100710002468491BA5688D42FAD363680460B4421B
:10072000436018606060816002D0A068411AA160D7
:1007300070BC704770090020AFF30080AFF30080F9
:100740000368074A934203D09968826889189960C0
:1007500042681360036800215A60C160704700BF9F
:1007600070090020AFF30080AFF30080AFF300808A
:10077000202383F31188037F0D2B11D8DFE803F0CA
:1007800020101007100B101010101010100B416AE1
:100790008A68531C8B6090E80C001A6001684B60FB
:1007A0004FF0FF3242628168074B002202771B68DC
:1007B0009A688A42FBD259680360416008605860B9
:1007C000002383F31188704780090020AFF3008075
:1007D00040F68013C2F2000300225B601B609A6047
:1007E0005B611B61704700BFAFF30080AFF3008017
:1007F00000228168054B02771B689A688A42FBD207
:1008000059680360416008605860704780090020A3
:1008100040F68013C2F2000310B499691A68087791
:1008200014201468C87701201077104663601C609C
:100830009A6110BCFFF78CBEAFF30080AFF300806D
:1008400030B54B1C87B0054611D00B4C0B4AA36941
:1008500001A8FFF755FF2846FFF7DAFF049B13B105
:1008600001A8FFF76DFFA069406A07B030BDFFF730
:10087000CFFF014CF7E700BF800900207107000897
:10088000F0B4144F8568BE690446B0686162002305
:1008900085420CD82377394609688A689542FBD986
:1008A00048682160606004604C60F0BC704733773A
:1008B000394609688A689042FBD94868316070609F
:1008C00006604E600123204631462377BC61F0BCB0
:1008D000FFF73EBE80090020AFF30080AFF3008039
:1008E0000E4B18689969026830B453601A608C68BE
:1008F00098610125142300220577CB770A770346F8
:1009000000E01B689A68A242FBD25A680B604A60FA
:100910001160596030BCFFF71BBE00BF800900208A
:100920000D4B18689969026830B453608C681A607E
:1009300001259861002305770B77034600E01B68CB
:100940009A68A242FBD85A680B604A6011605960ED
:1009500030BCFFF7FDBD00BF80090020AFF3008071
:10096000034B9869C17F09B1FFF7DABFFFF7B8BF42
:1009700080090020AFF30080AFF30080AFF3008068
:10098000F0B440F68014C2F20004002265690164EC
:10099000046100F12C06816000F1280745614FF0E9
:1009A000020C60610121142480F81CC04277C477D6
:1009B000C263826302628177826128618762066313
:1009C000C662F0BC704700BFAFF30080AFF3008099
:1009D0002DE9F00340F68015C2F20005A1F1240CC8
:1009E00000EB0C076969C76040F80C30069B7B6020
:1009F00040F26153C0F600033B62022303771423E5
:100A00000026904600F1280900F12C02C37701234B
:100A10000561C0F808804161044668614677C0F806
:100A20004080C66386630662837786610861C0F88A
:100A300028900263C262BDE8F0037047AFF3008004
:100A400010B51C4682B0202383F311882346049CF2
:100A50000094FFF7BDFF00210446FFF711FF0023BC
:100A600083F31188204602B010BD00BFAFF30080B1
:100A700008B50146202383F311880620FFF7E0FE26
:100A8000002383F3118808BDAFF30080AFF300802B
:100A900038B50E4B9C692546606255F8280FA84270
:100AA00006D00168A162FFF7A3FEA06AA842F8D1B0
:100AB000607F830704D1636922691A6121694B61F0
:100AC0000E20BDE83840FFF7A3BE00BF800900201C
:100AD000202383F31188FFF7DBBF00BFAFF3008053
:100AE0000023406000608360704700BFAFF3008068
:100AF00008B5826B037F1143082B81630BD0092B50
:100B000000D008BD426A11408A42FAD1FFF770FE58
:100B10000021416208BD436A1942F7D108BD00BFF8
:100B200070B50468A04205460E4608D0201D0BC8CB
:100B30003343E360FFF7DCFF2468A542F6D170BDC4
:100B400010B4024659B1084B9B69586244680D20A5
:100B500083E814005360236010BCFFF771BE4FF0B0
:100B6000FF3010BC704700BF80090020AFF3008049
:100B700010B4C361019B40608A1800240060846047
:100B800041618161C1600261036210BC704700BFB6
:100B9000426908B503468069824298681AD00130DC
:100BA000986002F8011B19695A618A420BD21868D1
:100BB00098420DD0016819604B60FFF719FE0023C1
:100BC0004362184608BD1868DA6898425A61F1D144
:100BD000002008BD0028E2D06FF0030008BD00BF70
:100BE00070B5202304460E4683F31188C36903B110
:100BF0009847A568204631463DB9FFF7A1FF002878
:100C0000F7DA2B4683F3118870BDA1692269013D93
:100C1000A56011F8010B9142A16124BFE168A161B7
:100C2000002383F3118870BDAFF30080AFF3008021
:100C30002DE9F0471E460446C769202383F3118837
:100C40004FF0000801F1010901EB020A0FB1204643
:100C5000B847A568204631464DB9FFF771FF002817
:100C6000F7D02B4683F311884046BDE8F087A3698F
:100C7000013DA56013F8012B09F8012C2069A3613F
:100C8000834224BFE368A361002383F31188D14525
:100C900008F10108E8D0202383F3118809F1010944
:100CA000D4E700BFAFF30080AFF30080AFF3008064
:100CB00010B4C361019B40608C1800608260416188
:100CC0008161C1600461036210BC7047AFF30080B2
:100CD000F8B504460F461646202383F31188A5680D
:100CE000204631463DB9FFF72BFF0028F7DA2B46A7
:100CF00083F31188F8BD6369013DA56003F8017BAA
:100D000022696361934228BFE368E16928BF636198
:100D100009B120468847002383F311881846F8BD9F
:100D2000826941699142034610B5806816D0441C1F
:100D30009C6012F8014B19699A618A420BD21868BB
:100D4000984206D0016819604B60FFF751FD0023FF
:100D50004362204610BDDA689A61F0E70028E6D0C9
:100D60006FF0020010BD00BFAFF30080AFF3008052
:100D70002DE9F0479A46044688461646D0F81C905E
:100D8000202383F311880027A56820466B1EEDB150
:100D9000A360656918F8011B05F8011B22696561EC
:100DA000954224BFE2686261B9F1000F00D0C847E4
:100DB000002383F311880137013E10D0202383F3F1
:100DC0001188A56820466B1E002DE1D120465146B2
:100DD000FFF7B6FE0028D7D02B4683F3118838469C
:100DE000BDE8F087AFF30080AFF30080AFF3008081
:100DF00040F6A01240F69C134AF200010648C2F2E7
:100E00000002C2F20003C2F2000120F0070021F04C
:100E1000070110601960704737110020AFF30080A0
:100E2000202383F31188094B09491A6809680730A0
:100E300020F00700891A88429ABF10181860002213
:100E4000002383F311881046704700BFA0090020DB
:100E50009C090020AFF30080AFF30080AFF3008067
:100E600040F6A813C2F2000340F621610022C0F64A
:100E7000000103F1100019609A60DA60FFF730BEDC
:100E800008B500F0D5F841F6A040C0F6000000F02B
:100E90008FF900F00DF800F07BF8BDE8084000F095
:100EA000C7BC00BFAFF30080AFF30080AFF300809A
:100EB00000F00EBBAFF30080AFF30080AFF3008013
:100EC0000123002103704160704700BFAFF3008031
:100ED00010B52023044683F311888B884160038179
:100EE00000F01EFB02202070002383F3118810BD48
:100EF00008B5202383F3118800F0DAFB002383F385
:100F0000118808BDAFF30080AFF30080AFF300801D
:100F10000C30FFF78DBE00BFAFF30080AFF3008051
:100F20000C304FF0FF33FFF783BE00BFAFF30080FC
:100F30003030FFF71DBF00BFAFF30080AFF300807C
:100F400030304FF0FF33FFF713BF00BFAFF3008027
:100F50000C30FFF745BE00BFAFF30080AFF3008059
:100F60000C304FF0FF31FFF73BBE00BFAFF3008006
:100F70003030FFF7ADBE00BFAFF30080AFF30080AD
:100F800030304FF0FF32FFF7A3BE00BFAFF3008059
:100F900000F02EBCAFF30080AFF30080AFF3008011
:100FA00070B541F680430546C0F60003044645F897
:100FB000043B82B0656001250B46164604F15401DE
:100FC0001022257200F10C000094FFF7D1FD00946F
:100FD00004F1300004F1640110223346FFF768FE8B
:100FE00002B070BDAFF30080AFF30080AFF30080BC
:100FF00038B5436904460D463BB104F10C0029465F
:10100000FFF7C6FD00280BDB38BD04300421FFF7D5
:1010100087FD04F10C002946FFF7BAFD0028F3DA3A
:10102000201D8021BDE83840FFF77ABDAFF3008076
:101030004FF48053C4F202034EF2100270B4002148
:10104000CEF200024FF0FF3541F63F141E691D61DC
:10105000C0F2010419614EF6F050DE68DD60CEF298
:101060000000D9605460072491601460C4684FF494
:101070008052CEF2000244F08074C460106840F0E8
:1010800001001060D8694FF4E042C4F2000240F061
:101090008050D861106840F4807010601A6A02F4C1
:1010A0004070B0F5007F03D04FF480321A621962AD
:1010B0004FF48053C4F20203196A0A0407D4186A71
:1010C00040F400721A62196A41F4004018624FF449
:1010D0008052C4F2020200239169C4F2010341F07C
:1010E000010090611A6842F02001196070BC7047DD
:1010F0004FF48053C4F2020319461A6842F001000B
:1011000018600A684FF480539007C4F20203F8D5C0
:101110001968002201F0F900186019465A60486801
:101120004FF4805310F00C0FC4F20203F7D119688A
:1011300041F4A0221A60184601684FF480538A03D4
:10114000C4F20203F8D55A6A42F001005862194607
:101150004A6A4FF480539007C4F20203F8D54FF463
:101160001050C0F21D004FF4045130225860D96273
:101170001A63186840F08071196018684FF4805243
:101180008101C4F20202F8D54FF40053C4F2020305
:1011900012211960506840F002035360516801F059
:1011A0000C000828FAD17047AFF30080AFF300803D
:1011B0004FF48053C4F202035A6942F4FC015961AE
:1011C00041684FF090424FF48063516081689160B4
:1011D000C168D160016951614169116281695162DF
:1011E00001681160016AC4F600034FF4006259609F
:1011F000416A9960816AD960C16A5961016B19625B
:10120000416B5962C1691960C4F60002C36B536037
:10121000016C9160436CD360816C5161C36C13624B
:10122000016D5162816B4FF440631160816DC4F6B2
:1012300000034FF480525960C16D9960016ED9600E
:10124000416E5961816E1962C16E5962416D1960BA
:10125000C4F60002436F5360816F9160C36FD36027
:10126000D0F880105161D0F884301362D0F8881023
:101270005162016F4FF4A0531160D0F89020C4F672
:1012800000035A60D0F894109960D0F89820DA6082
:10129000D0F89C105961D0F8A0201A62D0F8A410A0
:1012A0005962D0F88C001860704700BFAFF300801F
:1012B0002DE9F00F002302F00307C2F38006C2F30A
:1012C000C105C2F341144FF00F09C2F3C3124FF02E
:1012D000010A38E0D0F820B02BEA0C0C4CEA0808E0
:1012E000C0F82080D0F804B00AFA03FC2BEA0C08FE
:1012F00048EA060BC0F804B04FEA430C4FF0030B6A
:10130000D0F808800BFA0CFC6FEA0C0C0CEA080809
:1013100048EA0508C0F80880D0F80C800CEA0808F4
:1013200048EA0408C0F80C80D0F800800CEA080CE9
:101330004CEA070CC0F800C049081AD07600AD008E
:10134000A400BF00013303F0070C4FEA8C0C11F02E
:10135000010F02FA0CF809FA0CFCEDD0072BB9D9F1
:10136000D0F824B02BEA0C0C4CEA0808C0F8248012
:10137000B8E7BDE8F00F7047AFF30080AFF300802F
:1013800038B503691A69DC681440A4B2E1B204F00C
:101390000202C94392B2054619610ABB04F0040077
:1013A00082B2C2B904F0080082B27AB904F0100027
:1013B00082B232B9E30703D56A6828469368984732
:1013C00038BD6B682846996A8847F3E76B682846FA
:1013D000196A8847EAE76B68284699698847E1E710
:1013E000436819698847D9E7AFF30080AFF30080FD
:1013F00040F6C810C2F2000008B54FF430534268FE
:10140000C4F201036FF00101196193689847BDE8C8
:101410000840FFF755B800BFAFF30080AFF300807E
:101420004FF43053C4F2010310B51A69DC6814405C
:10143000A4B2E1B204F00200C94382B21961002AE9
:101440001DD104F0040082B2A2B904F0080082B2F7
:101450005AB904F01004A4B21CB10B484268936A54
:101460009847BDE81040FFF72BB807484368196A52
:101470008847EEE70448436899698847E5E70248EA
:10148000436819698847DCE7C8090020AFF300808A
:1014900008B540F6DC10C2F20000FFF771FFBDE8AE
:1014A0000840FFF70DB800BFAFF30080AFF3008036
:1014B00008B540F6F010C2F20000FFF761FFBDE88A
:1014C0000840FEF7FDBF00BFAFF30080AFF3008020
:1014D00070B540F6C816C2F20006304640F6DC157C
:1014E000FFF7EEFCC2F200054FF43053C4F20103E3
:1014F000284640F6F014C2F200043361FFF7E0FC26
:101500004FF48061C4F2000120462961FFF7D8FC46
:101510004FF40060C4F20000206170BDAFF30080A2
:101520000378012B70B5044668D042680369106BDC
:10153000002120F0FF051960DD601961596399638E
:10154000D96319645962E66815682489D168D06A3C
:10155000B6FBF5F5013D013C01F00F01ADB2A4B2BF
:1015600001299D62DC62586003D002290CBF03216F
:101570000021506900F00F00012824D0022820D05B
:10158000D06900F00F00012824D0022831D0506A21
:1015900000F00F00012824D0022825D00120196274
:1015A0005861D9689268002A0CBF084641F00100D2
:1015B000D86000214FF40042852019615A641860F8
:1015C00070BD41F02001D06900F00F00012841F00A
:1015D0001001DAD141F48071506A00F00F00012847
:1015E000DAD141F48051D9E741F4005141F48051FE
:1015F000D4E741F4007141F48071EDE7284EB04228
:101600000CD0284A904225D0274B98423AD02369E3
:10161000626846F668009861D86194E74FF4805399
:10162000C4F202037021986940F400659D61DE6890
:10163000002546F40072DA601920DD60FEF798FF9D
:1016400070211B20FEF794FF4FF4A241C0F2252128
:10165000E160DCE74FF48051C4F20201CB6943F052
:101660000200C8610D6945F002060E611D200022CE
:101670000A617021FEF77CFF4FF42241C0F24A411B
:10168000E160C4E74FF48051C4F20201C86940F040
:101690000405CD610E6946F004020A611E20E6E7EA
:1016A000C8090020DC090020F0090020AFF3008009
:1016B00010B44468036904EBC10001F10C0403EBAE
:1016C00084040069626048B10220DA6800FA01F11E
:1016D000114203D10A43C843DA60186110BC704755
:1016E0004FF46053C4F201031A6842F0800018609E
:1016F000704700BFAFF30080AFF30080AFF300800E
:10170000364B70B55D6F2E68EC6922072C6232D1C2
:10171000E30524D4A00616D4310601D5220645D40B
:1017200063060CD5202383F311882D481021FFF781
:10173000F7F9002383F3118826F040062E60BDE8F8
:101740007040FEF7BDBE202383F31188A98C234887
:10175000C9B2FFF74DFC002383F31188DCE7202397
:1017600083F311881E484FF40071FFF7D9F9002365
:1017700083F31188CEE714F0080F0CBF00218021FD
:10178000E30748BF41F02001A00748BF41F04001F6
:10179000620748BF41F48071202383F31188104809
:1017A000FFF7BEF9002383F31188B1E7202383F309
:1017B00011880C48FFF7B4FA002805DB80B22885B1
:1017C000002383F31188ABE705480821FFF7A8F948
:1017D00026F0C00242F040032B60F1E7040A00202B
:1017E000080A0020340A0020AFF30080AFF3008025
:1017F00010B540F60424C2F2000441F2E162C0F6E2
:10180000000220460021FFF7CBFB4FF460524FF45B
:10181000A243C4F20102C0F225236267A36710BD90
:10182000FFF766BCAFF30080AFF30080AFF300803A
:10183000704700BFAFF30080AFF30080AFF30080CC
:101840002D4B2E4A98692DE9F04782614FF4806054
:10185000C4F6000010214FF48172FFF729FD4FF408
:101860004060C4F6000020210022FFF721FD4FF464
:101870000060C4F600004FF400410122204C214ECC
:10188000FFF716FD4FF440651F4820494FF40067ED
:10189000FFF71EFBA0464FF00009C4F60005C4F692
:1018A00000074FF4004A04E03168F1B13C20FFF733
:1018B000DFF8002114482288FFF71AFB2368296902
:1018C000B3F5FA6FC1F340100BD003F59672002800
:1018D000EAD101234FF000403360C8F80020B8611E
:1018E000E4E7C6F800900028E0D0A3F596722260E5
:1018F000C7F818A0DAE700BF80090020501D0008D3
:1019000004080020280D0020DC0900200808002021
:101910002E4B2F4A98692DE9F04782614FF4806081
:10192000C4F6000080214FF48172FFF7C1FC4FF430
:101930004060C4F6000010210022FFF7B9FC4FF40C
:101940000060C4F600004FF400410122214C224FF8
:10195000FFF7AEFC4FF44065204821494FF4006882
:10196000FFF7B6FAA2464FF00109C4F6000540F2AF
:10197000A466C4F6000804E03968F1B13C20FFF722
:1019800077F8012115482288FFF7B2FA2368296900
:10199000B342C1F300100CD003F596720028EBD1CE
:1019A0004FF00043CAF80020C7F80090C8F818307C
:1019B000E4E700223A600028E0D0A3F596704FF4E7
:1019C00000412060C8F81810D8E700BF8009002047
:1019D000581D000844080020D00B0020F00900200A
:1019E00008080020AFF30080AFF30080AFF3008061
:1019F0002D4B2E4A98692DE9F04782614FF48060A3
:101A0000C4F6000040214FF48172FFF751FC4FF4FF
:101A10004060C4F6000008210022FFF749FC4FF4A3
:101A20000060C4F600004FF400410122204C214E1A
:101A3000FFF73EFC4FF440651F4820494FF4006714
:101A4000FFF746FAA0464FF00009C4F60005C4F6B9
:101A500000074FF4004A04E03168F1B16420FFF759
:101A600007F8002114482288FFF742FA2368296901
:101A7000B3F52F7FC1F3C0000BD0A3F52F72002860
:101A8000EAD101234FF000403360C8F80020B8616C
:101A9000E4E7C6F800900028E0D003F52F7222603A
:101AA000C7F818A0DAE700BF80090020601D000811
:101AB000400800202C110020F00900200808002018
:101AC0002DE9F8432A4B2B4A98692B4C82614FF43D
:101AD0008060C4F600004FF400714FF48172FFF78C
:101AE000E7FB4FF44060C4F6000004210022FFF73A
:101AF000DFFB4FF40060C4F600004FF40041012208
:101B0000FFF7D6FB4FF440661C481D491D4D4FF4AE
:101B10000067FFF7DDF9A146C4F60006C4F600072A
:101B20004FF4004805E0D0B92A6892B13C20FEF796
:101B30009FFF032111482288FFF7DAF923683169F2
:101B4000B3F5E16FC1F38000EDD100222A600028D7
:101B5000ECD1A3F596702060C7F81880E6E703F58E
:101B600096714FF000432860C9F80010BB61DDE7B3
:101B700080090020681D00083C080020F0090020B2
:101B80000808002028110020AFF30080AFF3008088
:101B90002DE9F843284B294A9869294C82614FF472
:101BA0008060C4F600004FF480714FF48172FFF73B
:101BB0007FFB4FF44060C4F6000002210022FFF7D3
:101BC00077FB4FF40060C4F600004FF4004101229F
:101BD000FFF76EFB4FF440651A481B491B4E4FF44C
:101BE0000068FFF775F9C4F60005C4F600084FF465
:101BF0000049012703E037606420FEF739FF022126
:101C000010482288FFF774F923682969B3F5E16F5A
:101C1000C1F340000AD00028EDD03268002AEBD191
:101C200003F52F732360C8F81890E5E700213160B1
:101C30000028E1D0F4E700BF80090020701D0008F3
:101C400000080020F009002008080020800E002075
:101C500069646C65000000000000000000000000E6
:101C60006D61696E00168411040448080C10141884
:101C7000001C1D1E1F2000000000000000000000CE
:101C8000410F0008210F0008810F0008610F0008B4
:101C9000710F0008510F0008310F0008110F0008E4
:101CA00000A8802A0000000000FCC03C541115640C
:101CB000FFFF00000000505500E00E0080A0000073
:101CC000C0000000C0F0000015055555FFFF0000E2
:101CD00000000044000000000000000000000000C0
:101CE000000000F055555505FFFF00000000000002
:101CF00000000000000000000000000000000000E4
:101D000055555555FFFF0000000000000000000081
:101D10004000555500000000C000FFFF155515019B
:101D2000FF000000000000000000000000000000B4
:101D3000000000000F00000050555555FFFF000047
:101D40000000000000000000000000000000000093
:101D500046696E676572350046696E676572340064
:101D600046696E676572330046696E676572320058
:081D700046696E6765723100DF
:101D780008070000D007000040420F00204E000076
:101D88000000000001000000000000000100000049
:101D98000000000001000000000000000100000039
:101DA800000000000000000000000000080700001C
:081DB800BC020000A4060000BB
:04000005080002717C
:00000001FF
